:10000000F8FF002011040000015A0000015A00000E
:10001000015A0000015A0000015A0000015A000074
:10002000015A0000015A0000015A0000015A000064
:10003000015A0000015A0000015A0000015A000054
:10004000D1540000015A0000015A0000015A00007A
:10005000015A0000015A0000015A0000015A000034
:10006000015A0000015A0000015A0000015A000024
:10007000015A0000015A0000015A0000015A000014
:10008000015A0000015A0000015A0000015A000004
:10009000015A0000015A0000015A0000015A0000F4
:1000A000015A0000015A0000015A0000015A0000E4
:1000B000015A0000015A0000015A0000015A0000D4
:1000C000015A0000015A0000015A0000015A0000C4
:1000D000015A0000015A0000015A0000015A0000B4
:1000E000015A0000015A0000015A0000015A0000A4
:1000F000015A0000015A0000015A0000015A000094
:10010000015A0000015A0000015A0000015A000083
:10011000015A0000015A0000015A0000015A000073
:10012000015A0000015A0000015A0000015A000063
:10013000015A0000015A0000015A0000015A000053
:10014000015A0000015A0000015A0000015A000043
:1001500043540000BD540000015A0000015A000041
:10016000015A0000015A0000015A0000015A000023
:10017000015A0000015A0000015A0000015A000013
:10018000015A0000015A0000015A0000015A000003
:10019000015A00002B540000015A0000015A0000CF
:1001A0009F530000015A0000015A00006D530000E7
:1001B000015A0000015A0000015A0000015A0000D3
:1001C000015A0000015A0000015A0000015A0000C3
:1001D000015A0000015A0000015A0000015A0000B3
:1001E000015A0000015A0000015A0000015A0000A3
:10040000FFFFFFFFFFFFFFFFFFFFFFFFFEFFFFFFFD
:1004100062B64FF000004FF000014FF000024FF0C5
:1004200000034FF000044FF000054FF000064FF0BE
:1004300000074FF000084FF000094FF0000A4FF09E
:10044000000B4FF0000C03F095FFFEE72DE9F041A3
:10045000002303220021022001F042FE0023032298
:100460000121022001F03CFE002303220221022090
:1004700001F036FE002303220321022001F030FEAA
:100480000121022001F08EFE04000321022001F070
:1004900089FE05000221022001F084FE06000021F1
:1004A000022001F07FFE0700E4B2EDB2A80010EBDD
:1004B000C400F6B210EB4600381880463B480021D5
:1004C00001705FFA88F8B8F1000F1FD0B8F1020F81
:1004D00026D020D3B8F1040F2CD026D3B8F1060FC4
:1004E00032D02CD3B8F1080F38D032D3B8F10A0F7C
:1004F0003ED038D3B8F10C0F44D03ED3B8F10E0F34
:100500004AD044D3B8F10F0F4BD04DE028484FF4F8
:10051000FA61016048E0264840F63401016043E09A
:10052000234840F6980101603EE0214840F6FC0176
:10053000016039E01E484FF41661016034E01C4848
:1005400040F6C41101602FE0194840F628210160EF
:100550002AE0174840F68C21016025E014484FF44A
:100560002F61016020E0124840F6543101601BE029
:100570000F4840F6B831016016E00D4840F61C41C6
:10058000016011E00A484FF4486101600CE008483E
:1005900040F6E441016007E0054840F6AC510160D7
:1005A00002E0024801210170BDE8F0815F60FF1F99
:1005B000D004FF1F38B5FFF749FF4FF47A7001F000
:1005C0005DFE4FF47A7001F059FEDFF8740D4A2198
:1005D00080F87810DFF86C0D002180F87810DFF8D3
:1005E000680D942180F87810DFF8600D002101601B
:1005F000DFF85C0D00210160DFF8580D002101607B
:10060000DFF8540D00210160DFF8500D40F2F14198
:100610000160DFF84C0D00210160DFF8480D00217A
:100620000160DFF8440D00210160DFF8400D00217A
:100630000160DFF83C0DDFF83C1D096801605FF4E4
:10064000FA31012001F042FEDFF82C0D006801F0C4
:10065000C6FF002301220521032001F041FD40F6E1
:10066000C41342F210720421002002F01FF840F27D
:10067000F14364220021012002F018F84FF4FA70CF
:1006800001F0FCFD01F046FF00230022642102205E
:1006900001F0A2FDDFF8E40C00680A2101FB00F183
:1006A000002002F0F5F94FF41662DFF8CC0C016877
:1006B000DFF8CC0C01F04DFFDFF8C80C772101709A
:1006C000DFF8C00C00780128C0F00981DFF8B40C15
:1006D0000078DFF86C1C40184078DFF8AC1C08701C
:1006E000DFF8A40C007801283ED3DFF89C0C0078DA
:1006F000DFF8901C0978A022DFF8843C02FB01316E
:10070000405C002828D1DFF8800C0078DFF8741CEA
:100710000978A022DFF8683C02FB0131401810F88C
:10072000010C002818D1DFF8600C0078DFF8541CA9
:100730000978A022DFF8483C02FB013140184078DC
:10074000FF2809D1DFF83C0C0078DFF8F81BDFF850
:10075000382C1278425407E0DFF82C0C0078401E49
:10076000DFF8241C0870BBE7DFF81C0C00780028B9
:1007700011D1DFF8100C0078DFF8C81B4018407862
:10078000DFF8001C0978DFF8BC2B8854DFF8FC0B7D
:100790000121017003E0DFF8F40B00210170DFF8A4
:1007A000E40B0078DFF8981B40184078DFF8D81B7E
:1007B0000870DFF8D40B00789F283ED2DFF8C80B12
:1007C0000078DFF8C01B0978A022DFF8B43B02FBF9
:1007D0000131405C002828D1DFF8AC0B0078DFF84D
:1007E000A41B0978A022DFF8983B02FB01314018D6
:1007F0004078002819D1DFF8900B0078DFF8841BCF
:100800000978A022DFF8783B02FB0131401810F88C
:10081000010CFF2809D1DFF86C0B0078DFF8281BEA
:10082000DFF8642B1278425407E0DFF85C0B0078A5
:10083000401CDFF8541B0870BBE7DFF84C0B007856
:100840009F2811D1DFF83C0B0078DFF8FC1A401824
:100850004078DFF8301B0978DFF8EC2A8854DFF89D
:10086000300B0121017003E0DFF8240B002101703F
:10087000DFF81C0B007801280CD1DFF8100B007892
:10088000012807D1DFF8FC0A0078DFF8081B0122F5
:10089000425406E0DFF8EC0A0078DFF8F81A00228C
:1008A0004254DFF8E00A0078DFF8981A405CDFF87D
:1008B000D41A0978DFF8902A895C0818022190FB85
:1008C000F1F0DFF8C01A0978DFF8742A8854DFF8ED
:1008D000B40A0078401EDFF8AC1A0870F0E6DFF8C2
:1008E000B80A00210170DFF8B40A00210170DFF8B6
:1008F000B00A00210170DFF88C0A77210170DFF85F
:10090000840A0078012823D3DFF8780A00784000B1
:100910004042DFF8901A401890F8EE00DFF8641AB1
:100920000978A022DFF8583A02FB0131405C002828
:1009300006D1DFF8640ADFF84C1A0978017007E085
:10094000DFF8400A0078401EDFF8381A0870D6E752
:10095000DFF8300A77210170DFF8280A00780128D3
:100960001AD3DFF8200A0078A021DFF8142A01FB4F
:10097000002090F84A00002806D1DFF8200ADFF8AE
:10098000041A0978017007E0DFF8F8090078401EC2
:10099000DFF8F0190870DFE7DFF8E8097721017068
:1009A000DFF8E0090078012823D3DFF8D8090078C0
:1009B00040004042DFF8EC19401890F8EF00DFF8F3
:1009C000C4190978A022DFF8B83902FB0131405C74
:1009D000002806D1DFF8C809DFF8A81909780170E6
:1009E00007E0DFF8A0090078401EDFF898190870CA
:1009F000D6E7DFF8B40900210170DFF8B009002163
:100A00000170DFF8AC0900210170DFF8A8090021AE
:100A10000170DFF88409007833280ED2DFF88009EE
:100A20000078332809D2DFF874090078332804D21B
:100A3000DFF874090121017003E0DFF86C0900217F
:100A40000170DFF8540900782D280ED2DFF8500924
:100A500000782D2809D2DFF8440900782D2804D227
:100A6000DFF848090121017003E0DFF840090021A7
:100A70000170DFF82409007824280ED2DFF820095D
:100A80000078242809D2DFF814090078242804D239
:100A9000DFF81C090121017003E0DFF814090021CF
:100AA0000170DFF8F40800781F280ED2DFF8F00894
:100AB00000781F2809D2DFF8E40800781F2804D244
:100AC000DFF8F0080121017003E0DFF8E8080021F9
:100AD0000170DFF86C0890F83C00DFF8641891F8BA
:100AE0003B100818DFF8581891F83A104018DFF852
:100AF000501891F83D104018DFF8441891F83E1056
:100B0000401801F0FDFFDFF84C180860DFF84408DA
:100B10000068DFF8A41802F01DF8DFF83818086044
:100B2000DFF82808DFF8281809680160DFF82008D6
:100B3000DFF8241809680160DFF88008DFF814186E
:100B4000096802F085F8DFF810180860DFF870080F
:100B500000210160DFF86C0800210160DFF86808FF
:100B600000210160DFF8640800210160DFF85C0EFD
:100B70000A210170DFF8580800210170DFF85408DD
:100B800000210170DFF8FC0777210170DFF8F4071E
:100B900000782328C0F0E380DFF8E8070078DFF86A
:100BA000A017405CDFF8DC170978DFF89427891874
:100BB00011F8011C401A012812DBDFF8C807007881
:100BC000DFF87C17405CDFF8BC170978DFF8702786
:100BD000891811F8011C401ADFF8FC17087011E0A1
:100BE000DFF8A0070078DFF85817401810F8010C5C
:100BF000DFF890170978DFF84827895C401ADFF89A
:100C0000D8170870DFF87C070078DFF83417405CED
:100C1000DFF870170978DFF8282789184978401A13
:100C2000012811DBDFF85C070078DFF81417405C5F
:100C3000DFF850170978DFF8082789184978401A33
:100C4000DFF89817087010E0DFF838070078DFF851
:100C5000F01640184078DFF82C170978DFF8E02606
:100C6000895C401ADFF874170870DFF86C070078A9
:100C7000052804D3DFF864070078052867D2DFF879
:100C800004070078DFF8B816405CDFF8F81609783A
:100C9000A022DFF8EC3602FB0131401810F8A00C5E
:100CA00000280FD0DFF8DC060078DFF89816405CEB
:100CB0009B2807D2DFF8CC060078DFF88C16405C62
:100CC000062800D24BE0DFF8F80600687730DFF83E
:100CD000B4160978401ADFF8E8160860DFF8E40671
:100CE0000068DFF8A0160978DFF85426895C401800
:100CF000DFF8D0160860DFF8D0060068DFF8841649
:100D00000978DFF83C26895CDFF878261278D2F182
:100D1000770202FB0100DFF8B0160860DFF8AC06CE
:100D20000068DFF860160978D1F17701DFF8542602
:100D30001278D2F1770202FB0100DFF8901608600A
:100D4000DFF8880C0078401CDFF8801C0870DFF8A2
:100D500034060078401EDFF82C16087016E7DFF81E
:100D600024060078401CDFF8D81D0870DFF8D00D8D
:100D70000078D0F17700032190FBF1F0DFF8C01D7F
:100D800009780818DFF8BC1D0870DFF8400C0078FF
:100D90000A38DFF8381C0870DFF82406006801F014
:100DA000AFFE5FF0804101F0C7FF0400DFF81C0CCC
:100DB000007801F0AFFE0100200001F0CBFEDFF86B
:100DC000881D0860DFF8FC05006801F099FE04004A
:100DD000DFF8F80B007801F09DFE0100200001F023
:100DE000B9FEDFF8681D0860DFF8DC05006801F077
:100DF00087FE0400DFF8D40B007801F08BFE0100C1
:100E0000200001F0A7FEDFF8481D0860DFF8BC05F0
:100E1000006801F075FE0400DFF8B00B007801F007
:100E200079FE0100200001F095FEDFF8281D086022
:100E3000DFF8140D0068DFF8141D096801F07CFF6D
:100E40005FF0804101F086FE0100DFF8040D0068CC
:100E500001F0FEFE5FF0864101F06EFF0400DFF856
:100E6000E80C0068DFF8E01C096801F065FF5FF03E
:100E7000814101F06FFE0100DFF8D80C006801F03D
:100E8000E7FE0100200001F065FEDFF8CC1C0860E1
:100E9000DFF8B80C00685FF0864101F04DFF0400F8
:100EA000DFF8B40C0068DFF8A01C096801F044FF0B
:100EB0005FF0804101F04EFE0100200001F0C8FE0D
:100EC000DFF8981C0860DFF8900C0068DFF8901CD1
:100ED00001F032FFDFF8841C096801F099FF5FF030
:100EE000864101F037FEDFF87C1C0860DFF8780CE3
:100EF00000210160DFF8740C00210160DFF8700C44
:100F000000210160DFF86C0C00210160DFF8BC0AF1
:100F10000A210170DFF86C0477210170DFF86404A6
:100F20000078DFF8201C09788842C0F0B380DFF831
:100F300054040078DFF80814405CDFF8481409789E
:100F4000DFF8FC23891811F8011C401A012812DB74
:100F5000DFF830040078DFF8E813405CDFF8241491
:100F60000978DFF8DC23891811F8011C401ADFF832
:100F70006814087011E0DFF80C040078DFF8C01383
:100F8000401810F8010CDFF8FC130978DFF8B023E3
:100F9000895C401ADFF840140870DFF8E803007835
:100FA000DFF89C13405CDFF8DC130978DFF890234E
:100FB00089184978401A012811DBDFF8C803007846
:100FC000DFF87C13405CDFF8BC130978DFF870238E
:100FD00089184978401ADFF8041408700EE0DFF829
:100FE000A4030078D64940184078DFF898130978B0
:100FF000D34A895C401ADFF8E4130870DFF8D8039D
:101000000078052804D3DFF8D403007805283BD204
:10101000DFF8540B00687730DA490978401ADFF8B6
:10102000481B0860DFF8440B0068D6490978C44AB9
:10103000895C4018DFF8341B0860DFF8340B006867
:10104000D0490978BE4A895CCE4A1278D2F177023B
:1010500002FB0100DFF8181B0860DFF8180B0068BE
:10106000C8490978D1F17701C64A1278D2F17702DE
:1010700002FB0100DFF8FC1A0860DFF85009007875
:10108000401CDFF848190870BE480078401EBD4972
:10109000087043E7DFF8340900780A38DFF82C19C4
:1010A0000870DFF8C40A006801F02AFD5FF0804193
:1010B00001F042FE0400DFF81409007801F02AFD77
:1010C0000100200001F046FDDFF8001D0860DFF898
:1010D0009C0A006801F014FD0400DFF8F0080078B5
:1010E00001F018FD0100200001F034FDDFF8E01CE4
:1010F0000860DFF87C0A006801F002FD0400DFF8F8
:10110000CC08007801F006FD0100200001F022FD6E
:10111000DFF8C01C0860DFF85C0A006801F0F0FC32
:101120000400DFF8A808007801F0F4FC01002000BA
:1011300001F010FDDFF8A01C0860DFF8900C0068DB
:10114000DFF88C1C096801F0F7FD5FF0804101F0C9
:1011500001FD0100DFF87C0C006801F079FD5FF013
:10116000864101F0E9FD0400DFF8600C0068DFF85B
:101170005C1C096801F0E0FD5FF0814101F0EAFCD0
:101180000100DFF8540C006801F062FD010020004E
:1011900001F0E0FCDFF8441C0860DFF8340C006864
:1011A0005FF0864101F0C8FD0400DFF8300C0068F4
:1011B000DFF8181C096801F0BFFD5FF0804101F005
:1011C000C9FC0100200001F043FDDFF8881D086024
:1011D000DFF8840D00210160DFF8800D002101603F
:1011E000DFF87C0D00210160DFF8780D002101603F
:1011F000DFF8D8070A2101706248DFF8481909783A
:10120000017060480078DFF8381909788842C0F02A
:10121000E7805C4800784A49405C5A490978484A66
:10122000891811F8011C401A01280DDB5548007877
:101230004349405C53490978414A891811F8011C17
:10124000401A654908700CE04E4800783C49401847
:1012500010F8010C4B490978394A895C401A5E49FB
:101260000870484800783649405C46490978344A55
:1012700089184978401A01280CDB42480078304927
:10128000405C404909782E4A89184978401A5349E8
:1012900008700BE03B4800782949401840783949EC
:1012A0000978274A895C401A4C4908704A480078F6
:1012B000052803D34948007805283BD2DFF8980C6D
:1012C000006877302F490978401ADFF88C1C0860D5
:1012D000DFF8880C00682B490978194A895C4018A6
:1012E000DFF8781C0860DFF8780C00682549097879
:1012F000134A895C234A1278D2F1770202FB01007B
:10130000DFF85C1C0860DFF85C0C00681D49097898
:10131000D1F177011B4A1278D2F1770202FB01006A
:10132000DFF8401C0860DFF8A4060078401CDFF8F6
:101330009C16087013480078401E1249087060E738
:10134000C85DFF1F445EFF1FC05EFF1F1809FF1F1F
:101350001C09FF1F2409FF1F2009FF1F1409FF1F7D
:101360003009FF1F3409FF1F3809FF1F4009FF1F05
:101370003C09FF1F2809FF1FE004FF1F4860FF1FF3
:10138000C812FF1F6260FF1F6360FF1F5C60FF1FCA
:101390005D60FF1F3C5FFF1FC004FF1F5E60FF1FFB
:1013A000C104FF1FE404FF1F5860FF1F5960FF1FA7
:1013B0005A60FF1F5B60FF1F0000A04000009242C8
:1013C000B85FFF1FBC5FFF1FC05FFF1FC45FFF1F31
:1013D0005760FF1F5660FF1F6560FF1F6660FF1F9D
:1013E000DFF8E80500780A38DFF8E0150870DFF864
:1013F000680B006801F084FB5FF0804101F09CFC09
:101400000400DFF8C805007801F084FB010020002B
:1014100001F0A0FBDFF8501B0860DFF8400B00680C
:1014200001F06EFB0400DFF8A405007801F072FB08
:101430000100200001F08EFBDFF8301B0860DFF8B0
:10144000200B006801F05CFB0400DFF880050078E9
:1014500001F060FB0100200001F07CFBDFF8101BB5
:101460000860DFF8000B006801F04AFB0400DFF8B9
:101470005C05007801F04EFB0100200001F06AFBE2
:10148000DFF8F01A0860DFF8E00A0068DFF8DC1A1D
:10149000096801F051FC5FF0804101F05BFB010045
:1014A000DFF8CC0A006801F0D3FB5FF0864101F061
:1014B00043FC0400DFF8B00A0068DFF8AC1A0968E2
:1014C00001F03AFC5FF0814101F044FB0100DFF8DC
:1014D000A40A006801F0BCFB0100200001F03AFB07
:1014E000DFF8941A0860DFF8840A00685FF086412C
:1014F00001F022FC0400DFF8800A0068DFF8681AB7
:10150000096801F019FC5FF0804101F023FB010044
:10151000200001F09DFBDFF8641A0860DFF8600A24
:1015200000210160DFF85C0A77210170DFF8540ABE
:101530000078DFF80C160978884257D3DFF8440AA0
:101540000078DFF8441A405C01F0E4FA0400DFF8A8
:10155000340A0078D0F1770001F0D2FADFF8F815FC
:10156000096801F0E9FBDFF8F415096801F050FCA7
:101570005FF0864101F0EEFA0100200001F068FB07
:101580000400DFF8000A0078DFF8FC19405C01F085
:10159000C1FA0500DFF8EC090078D0F1770001F01E
:1015A000AFFADFF8B415096801F0C6FBDFF8AC1537
:1015B000096801F02DFC5FF0864101F0CBFA0100D3
:1015C000280001F045FB210001F0B6FBDFF8B0195F
:1015D000096801F01DFCDFF8A8190860DFF8A4090C
:1015E0000078401EDFF89C1908709FE7DFF8940927
:1015F0000078D0F1770001F083FA0100DFF880096C
:10160000006801F0A7FADFF884190860DFF88009A4
:1016100001210170DFF84C050068DFF8781901F04E
:1016200039FC07D9DFF83C050068DFF86C1901F0D8
:1016300043FC0CD2DFF854090068DFF8601901F0B0
:101640003BFC04D3DFF85809DFF858190160DFF8D4
:1016500014050068DFF8401901F01CFC2BD8DFF8F6
:1016600004050068DFF8401901F026FC23D2DFF8FA
:101670001C090068DFF8241901F01EFC1BD3DFF8F9
:10168000E404006801F02AFC02000B000020DFF8EF
:101690001C1901F04BFC5FF03332DFF8143901F014
:1016A00005FD0022DFF80C3901F0D2FD01F044FE07
:1016B000DFF8EC180860DFF8AC040068DFF8E81821
:1016C00001F0E8FB2BD8DFF89C040068DFF8E8188D
:1016D00001F0F2FB23D2DFF8B4080068DFF8BC1891
:1016E00001F0EAFB1BD3DFF87C04006801F0F6FB95
:1016F00002000B000020DFF8C41801F017FC5FF0B7
:101700003332DFF8AC3801F0D1FC0022DFF8B0381A
:1017100001F09EFD01F010FEDFF884180860DFF88C
:1017200044040068DFF8901801F0B4FB2BD8DFF810
:1017300034040068DFF88C1801F0BEFB23D2DFF818
:101740004C080068DFF8541801F0B6FB1BD3DFF833
:101750001404006801F0C2FB02000B000020DFF857
:10176000681801F0E3FB5FF03332DFF8443801F032
:101770009DFC0022DFF8543801F06AFD01F0DCFD29
:10178000DFF81C180860DFF8DC030068DFF83418A5
:1017900001F080FB14D8DFF8CC030068DFF83018C4
:1017A00001F08AFB0CD2DFF8E4070068DFF8EC17E1
:1017B00001F082FB04D3DFF8E807DFF818180160B6
:1017C000DFF8A0030068DFF8081801F063FB29D8F0
:1017D000DFF890030068DFF8001801F06DFB21D2FC
:1017E000DFF8A8070068DFF8B41701F065FB19D32C
:1017F000DFF87003006801F071FB0022DFF8DC37CE
:1018000001F026FD5FF03332DFF8A43701F04EFC23
:101810000022DFF8B83701F01BFD01F08DFDDFF885
:1018200080170860CF480068DFF8AC1701F032FB82
:1018300027D8CC480068DFF8A81701F03DFB20D27C
:10184000DFF848070068DFF8541701F035FB18D3BC
:10185000C448006801F042FB0022DFF8883701F03D
:10186000F7FC5FF03332DFF8483701F01FFC00224D
:10187000DFF84C3701F0ECFC01F05EFDDFF82017DB
:101880000860B8480068DFF8581701F003FB27D854
:10189000B4480068DFF8FC1601F00EFB20D2DFF838
:1018A000EC060068DFF8F41601F006FB18D3AD482B
:1018B000006801F013FB0022DFF82C3701F0C8FCB0
:1018C0005FF03332DFF8E83601F0F0FB0022DFF89A
:1018D000E43601F0BDFC01F02FFDDFF8C41608600E
:1018E0009748007829282FD2DFF8000700781F28B2
:1018F0002AD39C480068DFF8F81601F0CBFA06D925
:1019000098480068DFF8EC1601F0D6FA1CD2DFF830
:101910007C060068DFF8E01601F0CEFA14D2DFF89A
:101920006C060068DFF8741601F0B4FA0CD884482D
:101930000078302808D2DFF86806DFF8C0160160AA
:10194000DFF84C060421017086480068DFF8B01605
:1019500001F0A0FA1CD883480068DFF8A81601F04F
:10196000ABFA15D2DFF8840600781F2810D2DFF812
:101970001C060068DFF8901601F08CFA08D8DFF832
:101980002006DFF888160160DFF8040607210170E1
:10199000DFF848040068DFF8781601F08DFA2BD2E2
:1019A000DFF838040068DFF86C1601F073FA23D80A
:1019B000DFF8D8050068DFF8E41501F07DFA1BD3E5
:1019C000DFF8B4050068DFF8501601E0D405FF1F0A
:1019D00001F060FA07D9DFF8A0050068DFF83C16CF
:1019E00001F06AFA08D2DFF8B805DFF834160160B2
:1019F000DFF89C05052101705A480068DFF80016E1
:101A000001F048FA1CD857480068DFF8F81501F0D3
:101A100053FA15D2DFF8D40500781F2810D2DFF86A
:101A20006C050068DFF8741501F046FA08D2DFF89B
:101A30007005DFF8F0150160DFF854050221017030
:101A4000DFF8400528210170DFF8380500785128BB
:101A500016D2DFF830050078DFF8CC15405C01289D
:101A600006D1DFF8C8050078401CDFF8C015087003
:101A7000DFF810050078401CDFF808150870E3E770
:101A8000DFF8A80500780F2808D32D4800783D28F6
:101A900004D2DFF89C050121017003E0DFF8900516
:101AA00000210170DFF88C05DFF88C1509680160F2
:101AB000DFF8DC040078012808D0022817D00428B9
:101AC0001CD0052858D0072829D064E0DFF86C0521
:101AD000006801F079FCDFF86825DFF8683501F06F
:101AE000E5FA01F087FCDFF85015086053E0DFF8F5
:101AF0004805DFF84815096801604CE0DFF83C054F
:101B0000006801F061FCDFF83825DFF8383501F0B6
:101B1000CDFA01F06FFCDFF8201508603BE0DFF83C
:101B20001C05006801F050FC5FF03332DFF8183517
:101B300001F0BCFA01F05EFCDFF8FC1408602AE05A
:101B40006460FF1F6760FF1FC85FFF1FCC5FFF1F40
:101B5000D05FFF1FD45FFF1FD85FFF1FDC5FFF1F39
:101B600000006C42E05FFF1FE45FFF1FE85FFF1FA4
:101B7000EC5FFF1FF05FFF1FDFF8C004006801F09B
:101B800023FC0022DFF8C43401F090FA01F032FCAB
:101B9000DFF8A4140860DFF8B8040078002814D037
:101BA000DFF8B004007800280FD0DFF89004006858
:101BB00001F00AFCDFF8A024DFF8A03401F076FA87
:101BC00001F018FCDFF870140860DFF88404007876
:101BD000002819D0DFF87C040078002814D0DFF842
:101BE0008004007800280FD0DFF85004006801F06E
:101BF000EBFBDFF87024DFF8703401F057FA01F0E6
:101C0000F9FBDFF834140860DFF84404007800289A
:101C100014D0DFF84004007800280FD0DFF840042B
:101C2000007800280AD0DFF844040078002805D0A6
:101C3000DFF80404DFF8041409680160DFF83004F9
:101C400000210170DFF8A4030078602809D2DFF8D2
:101C500024040078602804D2DFF81C04007860288F
:101C60000FD3DFF8D803006801F0AEFBDFF8D02314
:101C7000DFF8083401F01AFA01F0BCFBDFF8B81302
:101C80000860DFF868030078642810D3DFF8E40305
:101C9000007864280BD3DFF8E0030078642806D3CB
:101CA000DFF8DC0300689630DFF88C130860B54875
:101CB00077210170B34800786F2824D3B1480078A9
:101CC000B149405CAF490978DFF8B823895C401A14
:101CD0001A2812DAAB480078DFF8AC13405CA94947
:101CE0000978A94A895C401A1A2806DADFF88003C5
:101CF0000078401CDFF878130870A2480078401E76
:101D0000A0490870D6E7DFF868030078012826D3D9
:101D100040F2F14364220021012000F0C7FC0023BF
:101D200001220421032000F0DBF941F2883342F262
:101D300010720521002000F0B9FC4FF4487000F04B
:101D40009DFA002301220421032000F0C9F9002399
:101D500042F210720521002000F0A8FCF9E0CB4807
:101D6000CB4909680160C94800681A214843DC3042
:101D7000C6490860C748C84909680160C648C749DC
:101D800009680160AC480068C0490968401AC34945
:101D90000860A9480068BD490968401A4FF41671E7
:101DA000884204DBBE4840F6A66101604DE0B748BA
:101DB0000068A1490968401A4FF4167188420FDB88
:101DC000B748AF49096801603FE000BFF45FFF1FFB
:101DD000F85FFF1FFC5FFF1F0060FF1F0460FF1F15
:101DE000AE480068AC490968401A00F089FEAD4968
:101DF000096800F0A1FF0400A848006800F080FE18
:101E0000A949096800F098FF210001F001F80400D9
:101E1000A24800689F49096808189F490968B0EB03
:101E2000410000F06DFEA149096800F085FF210026
:101E300000F0EEFF01F004FB9D490860984800683F
:101E40009B490968081896490860954800688C49BC
:101E50000968884203DA9248894909680160904814
:101E60000068B0F57A6F03DD8D484FF47A61016048
:101E700090488B49096801606D4800787B49097872
:101E80000843C0B2002804D08B4840F2F141016001
:101E900031E08A488A49096800F0DAFE894900F091
:101EA000F9FF08D986480068874900F0B1FF8549E5
:101EB00000F0F0FF1BD83A4800688449096800F038
:101EC0003BFF834900F0A4FF04008048006881497B
:101ED000096800F0BDFE8049096800F02DFF21006F
:101EE00000F096FF01F0CEFA7349086003E07248F3
:101EF00040F2F14101607048006840F20F61884291
:101F000003D36D4840F20E6101606B4800684FF4E6
:101F10007A71884203D268484FF47A71016066484A
:101F200002680021012000F052FD6C480078002872
:101F300007D040F6FC020421002000F048FDFEF727
:101F4000A1BB5C4802680421002000F040FDFEF7C0
:101F500099BB31BD0860FF1F0C60FF1F1060FF1FA1
:101F60001460FF1F1860FF1F1C60FF1F2060FF1F11
:101F70002460FF1F2860FF1F2C60FF1F3060FF1FC1
:101F80003460FF1F6260FF1FC85DFF1F3860FF1FC6
:101F90006060FF1F0000EC420100F0410100304191
:101FA000B804FF1F000058410100304200004640C5
:101FB0003333C33F000028400100584200004B402B
:101FC00000002540010080420000504000002240F7
:101FD0000000A842000010410000BC42000055C0B3
:101FE0000000D042008057C000005AC05E60FF1F52
:101FF00001009D4200008B420100EC420000C04005
:10200000010048420000C042713D22420000F04001
:1020100001004041000040C10000C442FFFFC3C2B4
:1020200000002041000090403C5FFF1F5660FF1FF2
:102030005760FF1FDC04FF1FD804FF1FD004FF1FE1
:10204000CDCCCCCCCCCCE43F3333E33F0000D03F0D
:102050005860FF1F5960FF1F9A9999999999E93F14
:102060005A60FF1F713D0AD7A370ED3F5B60FF1FF1
:102070006160FF1FC104FF1FC004FF1FCCCCDC3F09
:10208000D404FF1F445EFF1FC05EFF1F2C09FF1F0B
:102090003C60FF1F3009FF1F3409FF1F3809FF1F75
:1020A0003C09FF1FC804FF1FC404FF1FCC04FF1F0F
:1020B0004009FF1F4409FF1F1409FF1F000092423F
:1020C0002409FF1F01004040000092C22009FF1FA9
:1020D00000209E441C09FF1FBC04FF1F5F60FF1F00
:1020E000F8B504000D0016001F00EDB2202D02D23D
:1020F000FFB2022F03D32421344801F0D5F9EDB209
:10210000E4B2334850F82400F6B24FF48071314302
:1021100040F82510F00705D5F6B2032E02D0F6B22E
:10212000132E0DD1E4B22B4850F824004069012150
:10213000A9408843E4B2274951F82410486130E0AF
:10214000E4B2244850F8240040690121A940084322
:10215000E4B2204951F824104861FFB2012F10D198
:10216000E4B21C4850F8240000680121A9408843CB
:102170000121A9400843E4B2164951F8241008602F
:102180000FE0E4B2134850F8240000680121A94090
:1021900088430021A9400843E4B20E4951F82410B5
:1021A0000860F1BD38B504000D00EDB2202D03D359
:1021B0007121064801F078F9E4B2064850F824008D
:1021C0000069E84010F0010032BD00000457000033
:1021D0009C04FF1F8804FF1FF8B504000D001600C3
:1021E0001F00F6B2102E01D30F200600E4B2012C1E
:1021F0000BD12F4800684FF4007108432C49086048
:102200002C484FF4C061016011E0E4B2022C0AD105
:102210002748006850F400602549086026484FF4BC
:102220008061016003E02D21244801F03DF9204840
:10223000006850F001001E4908602148002101603B
:102240002048ADB20560F6B2F00010F0780050F012
:1022500005001D490860FFB2012F01D1082000E0F0
:102260000020E4B2210111F03001084350F0430096
:1022700013490860552001F02AF9F1BD0C4909689D
:1022800051F001010A4A11600E4908600E49052209
:102290000A600B4901220A60094909680906FBD551
:1022A0000749096849084900054A1160704700005C
:1022B000388004404C90044014B004405057000053
:1022C000000004400800044004000440F0B4C0B220
:1022D000002808D0022824D014D304283FD02FD3BC
:1022E00005284BD059E06B4E4FF4407737606A4E6B
:1022F0004FF440773760694E366856F48066674F12
:102300003E604AE0664E4FF440773760654E4FF4CA
:1023100040773760614E366856F400665F4F3E6026
:102320003BE0614E4FF440773760604E4FF44077AA
:1023300037605A4E366856F48056584F3E602CE04F
:102340005B4E4FF4407737605A4E4FF4407737601A
:10235000524E366856F40056504F3E601DE0564EC1
:102360004FF440773760554E4FF440773760544E06
:10237000366856F48066524F3E600EE0514E4FF480
:1023800040773760504E4FF4407737604C4E366898
:1023900056F400664A4F3E60FFE7C0B24B4E56F817
:1023A0002060F67816F0F306C0B2484F57F8207058
:1023B000FE70C0B2454E56F820600027B770C0B21C
:1023C000002801D1012600E00026C0B2012801D179
:1023D000012700E000273E43F6B2002E06D03C4E17
:1023E00036684FF47A777E43350005E0394E36681B
:1023F0004FF47A777E4335000E01B5FBF6F63200D6
:10240000C0B2324E56F82060367816F0E00634003E
:1024100092B2160A16F01F062643C0B22B4F57F889
:1024200020703E70C0B2294E56F8206072706E0166
:102430000F01B6FBF7F692B2B6EB42163300C0B20C
:10244000224E56F82060B67A16F0E0063400C0B28C
:102450001E4E56F8206013F01F072743B772C0B214
:102460001A4E56F82060F67856F00C06C0B2174F98
:1024700057F82070FE70F0BC7047C0B2134A52F893
:10248000202012791206F8D5C0B2104A52F8202046
:10249000D171704718C004401CC00440348004400F
:1024A00004D0044000D004400CC0044008C00440E4
:1024B00040B0044044B0044064D0044060D00440C4
:1024C0002880044024D0044020D00440EC05FF1FA5
:1024D0004060FF1F4860FF1FE0B5012002904FF4ED
:1024E0001660019000200090482367480268674901
:1024F000002001F07DF86649482001F0AFF9002086
:1025000000F0E5FF6349232001F0A8F9582001F00D
:1025100028F807BD80B56048042101705F485FF06E
:10252000FF310160582000F0D2FF5B48007801289D
:102530000ED0594800780228F7D15748042101707D
:1025400056485FF0FF310160582000F0C0FFECE713
:1025500001BD78B400AB524C25881D801400621E6A
:10256000002C3AD00C782300491CDBB2DC1100AD02
:10257000645D0470401CC3F38014E4B200AD645D7C
:102580000470401CC3F34014E4B200AD645D0470F9
:10259000401CC3F30014E4B200AD645D0470401C41
:1025A000C3F3C004E4B200AD645D0470401CC3F327
:1025B0008004E4B200AD645D0470401CC3F34004C9
:1025C000E4B200AD645D0470401CDBB213F00104A2
:1025D00000AD645D0470401CC0E771BC704710B56D
:1025E00004002948046000F006F80028FBD0FFF73B
:1025F00073FF002010BD10B582B0002400208DF8BC
:10260000000001F094F93220FFF738FE80211220FB
:1026100001F01EFB002808D1641CA4B2142CF5D1D3
:102620003220FFF72BFE00202CE03220FFF726FEA1
:102630000B22012100A801F02FFB002801D100206E
:1026400020E09DF8000021281BD10020040015483F
:102650000078A4B280B2844211D2A4B2124810EB26
:1026600044004178A4B2104810F8140080B201F080
:10267000EFFA002801D1002004E0641CE7E7012004
:1026800000E0002016BD0000DC08FF1F52F00F40E4
:1026900003000100130009001C04FF1FA0A0044058
:1026A000362D00008404FF1F2004FF1F2DE9F84F82
:1026B00004000D0016001F00DFF88C0300684FF4C3
:1026C0007A7148435FEA5008E4B2002C0DD0E4B2BE
:1026D000012C02D0E4B2022C02D1EDB2022D04D3BF
:1026E0003821DFF8680300F0DFFE5FEA5800B042EF
:1026F00004D23921DFF8540300F0D6FE5FEA184017
:10270000B0FBF6F08146002082461FFA89F959FA9B
:102710000AF0012802DB1AF1010AF6E74FF47A7099
:10272000864201D21AF1010A38FA0AF0B0FBF6F03B
:1027300081461FFA89F919F1010000FB07F042F206
:102740001071B0FBF1F08346E4B2002C05D0022CEE
:1027500000F0B980C0F08A80E3E0DFF8F40200689E
:1027600050F08070DFF8E8120860EDB2002D0BD059
:10277000022D25D016D3042D3ED02FD3062D57D0B1
:1027800048D3072D62D06FE0DFF8C802006850F42C
:102790000060DFF8C0120860DFF8BC024FF480610F
:1027A000016062E0DFF8AC02006850F40060DFF81E
:1027B000A4120860DFF8A4024FF48061016054E0C5
:1027C000DFF89002006850F40060DFF888120860BB
:1027D000DFF88C024FF48061016046E0DFF874029C
:1027E000006850F40060DFF86C120860DFF87402D3
:1027F0004FF48061016038E0DFF85802006850F45F
:102800008050DFF850120860DFF85C024FF48061FE
:1028100001602AE0DFF83C02006850F48050DFF8E5
:1028200034120860DFF844024FF4806101601CE05C
:10283000DFF82002006850F48050DFF818120860BA
:10284000DFF82C024FF4806101600EE0DFF8040233
:10285000006850F48050DFF8FC110860DFF81402C3
:102860004FF48061016000E0AFE05AE0DFF8E00182
:10287000006850F00070DFF8D8110860EDB2002D4C
:1028800002D0012D0ED01CE0DFF8C801006850F422
:102890008060DFF8C0110860DFF8DC014FF44071A0
:1028A00001600FE0DFF8AC0100684FF400710843ED
:1028B000DFF8A0110860DFF8C4014FF44071016037
:1028C00000E082E02DE0DFF8B801006850F0807091
:1028D000DFF8AC110860EDB2002D02D0012D0FD051
:1028E0001DE0DFF8700100684FF400710843DFF865
:1028F00064110860DFF88C014FF4407101600FE053
:10290000DFF8500100684FF400710843DFF844110C
:102910000860DFF874014FF44071016000E054E09A
:10292000FFE7EDB2E4B2DFF8640150F8240010EBE9
:10293000C500EDB2E4B2DFF8541151F8241011EBE8
:10294000C501C96831F00401C160EDB2E4B2DFF83D
:102950003C0150F8240010EBC5002821C160E4B20E
:10296000DFF8280150F824005FFA8AFA1AF007010C
:1029700051F028010160E4B2DFF8100150F82400A2
:102980000021C164E4B2DFF8040150F824001FFA0A
:1029900089F9C0F80890E4B2DFF8F00050F824009C
:1029A0000021C164EDB2E4B2DFF8E00050F8240089
:1029B00010EBC5001FFA8BFBC0F810B0E4B2DFF8D3
:1029C000CC0050F8240000214160BDE8F18F2DE9D2
:1029D000F04104000D001600E4B2002C0ED0E4B269
:1029E000012C02D0E4B2022C02D1EDB2022D05D3AB
:1029F0004FF4B071DFF8540000F056FD42F2117050
:102A0000864205D340F26111DFF8400000F04CFD32
:102A1000E4B2DFF8780050F824008068804618F1AE
:102A2000010000FB06F042F21071B0FBF1F007006C
:102A3000EDB2E4B2DFF8540050F8240010EBC5000A
:102A40000761BDE8F08100004860FF1F9C5700004F
:102A50003C8004403880044004B0044008B0044086
:102A60000CB0044010B0044010C0044014C0044036
:102A700018C004401CC0044000A00440249004403E
:102A800030800440289004402C9004401004FF1F24
:102A900038B504000D001748006850F400001549CF
:102AA0000860154800688008800013490860E4B297
:102AB000200112494550E4B2104810EB0410C068E0
:102AC00050F00100E4B20D4911EB0411C860E4B20A
:102AD0000A4810EB0410806850F00300E4B2074984
:102AE00011EB04118860E4B214F1440000F0EFFC33
:102AF00031BD00003C800440007003400071034081
:102B0000002840F10980F446404200F005F850F0FA
:102B100000406047002800BF0AD0B0FA80F188402A
:102B2000D1F19D01C905020672F1004241EB10206E
:102B3000704750F8041B61B150F8042BD30744BF11
:102B4000A9F101039A18002342F8043B091FFAD1A6
:102B5000EFE7704710B5FF2313EAD0541DBF13EA07
:102B6000D1529C429A4239E0A41ADA0780EA010362
:102B7000134042EA012142EA0020421A3CBF641E8F
:102B800001EB4202090AB2FBF1FE01FB1E22120216
:102B9000B2FBF1F001FB10226EF30F201202B2FB28
:102BA000F1FE4EEA00207F3406DDFE2C24DA53EAE3
:102BB000500050EBC45010BDD4F1020401FB1E22A2
:102BC00040F08071192C1DDC21FA04F0C4F12004BE
:102BD000A140114371F10042584110BD9C421ABFFF
:102BE00003EAD1529A420FE080EA010E0EF0004350
:102BF000400004D0490016D143F0FF4010BD490009
:102C000008BFD343180010BD9C4205D1D21AF7D09B
:102C100001F00041484010BD4A0212BF084648403A
:102C200000F0004010BD4AB90902B1FA81F29140AA
:102C300044B1A418C00140F000409EE7C90141F032
:102C4000004152420002B0FA80F4A040141B94E705
:102C500090EA010F44BF81F0004100F0E1B800BFED
:102C6000431A4FF000423EBF5340C01AC91800BF7C
:102C7000D3095FEAD05C13EB400F34BFB3EB410FD5
:102C800040E07CEBD1530CD342EA012122D8D1EBB6
:102C9000402009D3400A28BF5FEA500140EBCC50E6
:102CA0007047401A15D04002B0FA80F2521C904092
:102CB000400A4FEA3C23B3EB026384BF00EB73008E
:102CC00007E040F400001A16DB07C2F10102D04011
:102CD00018437047182BFCDC31FA03F202FA03F3B5
:102CE000591A38BF42F00102D2EB40203CBF4000ED
:102CF000ACF1010C5FEACC5CC20572F100414CEB17
:102D00005020704713EB400F0FD24B0009D0ACEBB3
:102D1000D153022B03DB4902172BDDDD70479143B2
:102D2000401A4300D5D10020704713EB410FD0D398
:102D30006FF000007047FF00FF2212EAD05C1DBF59
:102D400012EAD153944593422BE09C44D30780EA86
:102D500001021A4043EA002043EA0121A1FB0030AE
:102D6000410038BF40007CF17F010BDBFE294ADACD
:102D70005B0842EAC15153EA006373F1004C51EB26
:102D800010207047D1F1080CDCF120012FDB5B082B
:102D900010FA01F10B4373F1004120FA0CF050419D
:102DA000704794451CBF02EAD153934280EA010266
:102DB00002F000421DD0400019D0490017D05BB985
:102DC000634514D00902B1FA81F39940BCEB030CBE
:102DD000C00140F00040C1E70002B0FA80FC10FAE8
:102DE0000CF0B3EB0C0CC90141F00041B6E7100048
:102DF000704740000AD0490008D010F1807F94BF8E
:102E000011F1807F02E042F0FF407047D0437047ED
:102E100090EA010F44BF81F00041FFF721BF00BFDE
:102E2000421A3CBF801A89184FF0004CC0F3C752B9
:102E3000FF2A24D0C1F3C75313B3D21AD2F1190316
:102E400027DD4CEA01214CFA03F321EA0303D140C8
:102E5000C20D4CEA0020401834BF20EA0C004CEAB6
:102E60005000D20553EA006373EB0C0C52EB1020B8
:102E7000420012F1807F38BF7047C00DC005704717
:102E8000490212BF9A4200EB5120F8E7D2F1170332
:102E9000D9D570474FF0807C1CEB400F94BF1CEBE2
:102EA000410F05E040EA010C5FEA4C0C01D281427F
:102EB000704718BF884270474FF0807C1CEB400F72
:102EC00094BF1CEB410F05E040EA010C5FEA4C0C9B
:102ED00001D28842704718BF814270475FF0FF0CF3
:102EE0001CEAD05114BF614506E0C110400721F033
:102EF000E04101F16051704779B900F000410002F2
:102F00000AD0B0FA80FC00FA0CF001F16051A1EB9C
:102F10000C5101EBD0214005704741020CBF40F439
:102F2000E0016FF0000100207047000070B44FF026
:102F3000004591EA030F44BF6B4000F093B900BF16
:102F4000841A71EB030604D26E40001BB1411219C2
:102F500073414FF4001C1CEB410F34BF7CEB430664
:102F600084E00C0DA4EB1356362E7DDC012E43DCE1
:102F700045EAC32343EA525312BFD20292025B08CE
:102F8000240545EAC12141EA5051D2EBC0209941C4
:102F900025D407D1B0FA80F610FA06F164D00020EB
:102FA000203608E0B1FA81F6B140C6F1200220FADD
:102FB00002F21143B0404FEAF474B4EB465434F0DB
:102FC00001064FEA74040AD8D6F50016760D04F00F
:102FD0000044F04061FA06F25040F1404840C00A17
:102FE00040EA415021F0004128BF5FEA500550F10E
:102FF000000044EBD12137E045EAC323DB0A45EA70
:10300000C121C90AB6F120050EDD42EA0242120CC6
:10301000C5F1200603FA06F6EB4042EA06056D42CA
:10302000984161F100010DE062FA06F5F240554069
:1030300063FA06FC82EA0C02F3405A406D4290416A
:1030400061EB030111F4801F05D1641E620502D0FB
:103050006D004041494121F48011430875F100435E
:1030600050F1000041EB045170BC70471CEB410F64
:1030700015D223F0004352EA43060BD04FEA4C0C22
:10308000BCEB410F04D80C0D661E342EB7DDEBE708
:10309000801A994150EA410608BF0021E4E708BFC1
:1030A0001CEB430F28BF6FF00001DDE7B0B581EAEC
:1030B000030C0CF0004C40F2FF7515EA11541DBFD3
:1030C00015EA1357AC42AF4239E0E41923EA4553FD
:1030D00043F48013C90241F0004141EA505EC70247
:1030E0001100A7FB020200284FF00000EEFB0120B8
:1030F0004FF00001E3FB072118BF42F00102401826
:1031000000214941E3FB0E01A4F580640F0302D2C4
:1031100052004041494154F101046CDD470872F10D
:10312000004250F1000051EB0451A1F580115CBF49
:1031300041EA0C01B0BD4CEA05510020B0BD05EAE2
:103140001357AC4214BFAF4241E050EA410E1CBFDE
:1031500052EA430E02E061460020B0BD24423C44E6
:103160001BD15FEA070EF6D0090302BF014600201B
:10317000AEF1140EB1FA81F7AEEB070401FA07FEC7
:103180000C37C7F1200100FA07F7C8404EEA000EDD
:1031900023EA455343F48013A2E733F00043B3FA24
:1031A00083F704BFB2FA82FE77440B3FE41BB7F10A
:1031B000200E2FBF02FA0EF3BB40C7F1200E22FAF9
:1031C0000EFE38BF43EA0E03BA40641C82E750EAA1
:1031D000410E14BF52EA430E6FF000014FF4001786
:1031E00017EB430F8ABF194617EB410FB5E74CEABF
:1031F00005510020B0BDD4F10104B4F120070FDA6D
:10320000C4F12007520828BF42F0010210FA07F566
:1032100001FA07F7E1BF2A43E0403843E1400FE0FD
:10322000352C98DCC7F1200452EA400220FA07F25C
:1032300018BF42F0010231FA07F0A1400A43002111
:1032400072F1004250F1000051EB0C01B0BD0000E2
:1032500070B44FF0004591EA030C44BF6B40FFF798
:103260006FBE00BF841A71EB030603D2001BB1418D
:10327000121973414FF4001C1CEB410F34BF7CEB5F
:10328000430443E00C0DA4EB1356352E50DC45EA05
:10329000C323DB0A45EAC121C912B6F120050DDDC1
:1032A00063FA05F6EB4086EA0305124218BF45F0C3
:1032B0000105C01851F100010CD213E062FA06F5C5
:1032C000F2405540F3415A40B340F3405A40801811
:1032D000594107D349085FEA30005FEA350528BF46
:1032E00045F0010501F58011420875F1004250F1E9
:1032F000000041EB045170BC4FF4001C1CEB410F6B
:1033000038BF70470020090D090570471CEB410FBD
:1033100010D252EA43060BD0BCEB410F05D80C0D7E
:10332000AB43661E342EB5DD02E0AB438018594135
:1033300070BC704770BC70474FEAF17CBCF1E04C48
:103340002CBFBCF5001F11E05FEA4C0C34BFBCF190
:103350007F5F2EE05FEA9C0C4FEA0C1C4FEA3C0CAE
:10336000C10071F100414CEB50707047C90241EA55
:103370005051C00218BF41F0010141F000414FEA35
:103380006C50C0F10900212810D240EACC7CCCF16D
:10339000200C11FA0CF070F10040CCF1200C21FA55
:1033A0000CF00CF0004C40EB0C0070474FEACC7076
:1033B0007047490011F5001F04D84FEACC10FF30C8
:1033C000C0057047C8177047010040F10780F446F8
:1033D000404200F003F851F00041604709D0B0FAD4
:1033E00080F18840C91CC1F58461090501EBD02139
:1033F00040057047F446400D40EAC120490006D21E
:1034000000F00EF8004248BF6FF00040604700F047
:1034100007F84FF0004188428CBF084640426047A1
:1034200040F00040490DA1F58061491C05D4D1F15F
:103430001F0154BFC840C01770474FF000007047CD
:103440004100090E7F3915D4D1F11F0114D4400079
:1034500007D2C00140F00040C84048BF6FF00040B4
:103460007047C00140F00040C8404CBF4FF00040E2
:10347000404270470020704700424FF0004058BF64
:10348000C043704740000DD2010E7F390AD4D1F1FC
:103490001F0104D4C00140F00040C84070477FF0D5
:1034A000000070470020704738B504000D0000F0A0
:1034B00037FC2A002100034800F025FF00F059FCEA
:1034C000F7E700BFB85600003D490860704738B5BF
:1034D00004005C2C02DB3B4800F015FF202094FB2D
:1034E000F0F00500002D03D0022D27D013D337E0D4
:1034F0000120202194FBF1F202FB1142904032495D
:1035000008600120202194FBF1F202FB114290405F
:103510002E49086024E00120202194FBF1F202FBF7
:10352000114290402A4908600120202194FBF1F2C9
:1035300002FB114290402749086011E00120202140
:1035400094FBF1F202FB11429040234908600120F4
:10355000202194FBF1F202FB114290401F490860C8
:1035600031BD38B504005C2C02DB1D4800F0CBFEF9
:10357000202094FBF0F00500002D03D0022D15D083
:103580000AD31CE00120202194FBF1F202FB11423E
:1035900090401449086012E00120202194FBF1F2D0
:1035A00002FB114290401049086008E001202021F0
:1035B00094FBF1F202FB114290400C49086031BDCE
:1035C00008ED00E0F058000080E200E000E100E0DB
:1035D00084E200E004E100E088E200E008E100E0CD
:1035E000B458000080E100E084E100E088E100E000
:1035F0002DE9FE4F05000E000C9C0D9FE4B2002C3F
:1036000007D1DFF82002864203D3DFF81C02B04264
:1036100022D2E4B2012C0BD1DFF80802864207D394
:10362000DFF80802B04203D316F00300032813D1D9
:10363000E4B2022C0BD1DFF8EC01864207D3DFF8AD
:10364000F001B04203D316F00300002804D0322169
:10365000DFF8E001FFF728FFE4B2002C02D15FF0B1
:10366000010B0DE0E4B2012C02D15FF0020B07E088
:10367000E4B2022C02D15FF0040B01E05FF0100B0A
:103680006D48006850F002006B4908606B480068A4
:1036900050F0020069490860EDB26801684946507F
:1036A000EDB2680100F1804010F510400199016110
:1036B000EDB2680100F1804010F5104000218180DA
:1036C000EDB2680100F1804010F510405FFA8BFB0D
:1036D000A0F814B0E4B2200210F4E060E4B214F0F8
:1036E00007010843EDB2690101F1804111F5104174
:1036F000C880EDB2680100F1804010F5104039003B
:103700004904490CC182EDB2680100F1804010F516
:10371000104039004904490CC1834A48006830F020
:10372000800048490860EDB2680100F1804010F562
:1037300010405FFA8BFBC0F808B0EDB2680100F1F1
:10374000804010F510400021C1600E98C00701D4E0
:10375000784200E00020EDB2690101F1804111F5ED
:1037600010418861EDB2680100F1804010F5104011
:103770000A2181839DF80800C0B24009313050F021
:103780008000EDB230496854304800684FF4007151
:10379000B20912F00702914008432C490860E4B2D4
:1037A000002C03D0022C07D003D308E00020307196
:1037B00009E00020B08006E00020706003E06E2188
:1037C0001C48FFF771FE102080465FFA8BFB5FEA12
:1037D000CB0050FA88F08246C1465FFA89F95FFA59
:1037E0008AFAD1450ED25FFA89F9B00910F00700C4
:1037F000174951F820004FF4817140F8291019F150
:103800000109EAE7134800680121A94088431149EA
:103810000860114800680121A94008430E4908606A
:10382000BDE8F78F10F00F4013F10F4012F10F4079
:1038300010F10F40E4570000408004403C800440F9
:10384000009000400080004000100240388004409A
:103850009C04FF1F0C8000402480004038B4C0B29C
:10386000420910F01F0300248DF80040264C246804
:103870004FF4007595402C43234D2C60DBB2D2B23F
:10388000224C54F822404FF480750D4344F82350E5
:103890009DF80040641C8DF800409DF80040641CB9
:1038A0008DF800409DF80040641C8DF800409DF8A4
:1038B0000040641C8DF800409DF80040641C8DF8A9
:1038C00000409DF80040641C8DF800409DF80040C9
:1038D000641C8DF800409DF80040641C8DF8004089
:1038E0009DF80040641C8DF80040D2B2084C54F89A
:1038F0002240646901259D40AC43D2B2044D55F885
:1039000022506C6131BC7047388004409C04FF1F1A
:103910008804FF1F01B4BDF80000002805D0BDF8E1
:103920000000401EADF80000F5E701B0704780B51B
:10393000002301220A210220FEF7D2FB00230122EC
:103940000B210220FEF7CCFB01BD80B5BD4800680D
:1039500050F40060BB490860BA48006850F48060C9
:10396000B84908606420FFF7D5FFB748006830F415
:103970000060B5490860B5480068C0F3C020C007C2
:1039800007D4B148006850F40060AF4908600020D7
:103990002FE0AD48006850F40060AB490860A948CA
:1039A000006830F40060A74908606420FFF7B2FFA8
:1039B000A548006830F40060A3490860A348006887
:1039C000C0F3C020C00707D59F48006850F40060CE
:1039D0009D49086000200CE09B48006850F400609E
:1039E000994908609748006830F40060954908607C
:1039F000012002BD80B59348006830F48060914991
:103A000008609048006830F400608E4908606420C7
:103A1000FFF780FF8B48006850F480608949086098
:103A20008848006850F40060864908606420FFF709
:103A300071FF01BD80B58348006830F48060814922
:103A400008606420FFF766FF7E48006830F400607D
:103A50007C4908606420FFF75DFF7A48006850F4F5
:103A60008060784908606420FFF754FF754800685B
:103A700030F48060734908606420FFF74BFF01BD9C
:103A800080B57048006830F480606E49086064203A
:103A9000FFF740FF6B48006850F400606949086018
:103AA0006420FFF737FF6748006850F4806065497D
:103AB00008606420FFF72EFF6248006830F48060E1
:103AC000604908606420FFF725FF01BD80B55D48AF
:103AD000006830F480605B4908606420FFF71AFFDB
:103AE0005848006850F40060564908606420FFF7A9
:103AF00011FF5448006850F48060524908605248F1
:103B0000006830F40060504908606420FFF702FF4D
:103B10004E480068C0F3C020C0070DD54A48006871
:103B200050F40060484908604648006830F48060FE
:103B30004449086000200CE04348006850F40060ED
:103B4000414908603F48006830F480603D490860A2
:103B5000012002BD38B5040008252800451EC0B26A
:103B6000002825D03748006830F480603549086067
:103B70006420FFF7CFFE200606D53248006850F4D7
:103B800000603049086005E02E48006830F40060AD
:103B90002C49086064006420FFF7BCFE29480068D7
:103BA00050F48060274908606420FFF7B3FED4E733
:103BB0002448006830F480602249086031BD38B57F
:103BC000082400251F48006850F400601D49086063
:103BD0006420FFF79FFE1C48006830F400601A491B
:103BE00008602000441EC0B200281BD06D0015489C
:103BF000006830F48060134908606420FFF78AFE93
:103C00001048006850F480600E4908606420FFF797
:103C100081FE0E480068C0F3C020C007E1D555F012
:103C20000105DEE70848006850F4006006490860B6
:103C30000448006830F4806002490860EDB2280052
:103C400032BD000080F00F4094F00F4090F00F4024
:103C500038B504000D00FFF778FE002801D10020E0
:103C600019E04220FFF776FFFFF730FF002803D16D
:103C7000FFF7C0FE00200EE02000C0B2FFF76AFF91
:103C8000FFF724FF2800C0B2FFF764FFFFF71EFF15
:103C9000FFF7B0FE012032BD70B504000D00160024
:103CA000FFF753FE002801D1002037E04220FFF744
:103CB00051FFFFF70BFF002803D1FFF79BFE002009
:103CC0002CE03000C0B2FFF745FFFFF7FFFEFFF723
:103CD00091FEFFF73AFE002801D100201EE04320AC
:103CE000FFF738FFFFF7F2FE002803D1FFF782FE4F
:103CF000002013E0ADB2002D0DD0FFF760FF207063
:103D0000ADB2012D02D1FFF7BBFE01E0FFF792FE3D
:103D1000641C6D1EEEE7FFF76DFE012070BD000014
:103D200080B5012301220C210320FEF7D9F90123DC
:103D300001220D210320FEF7D3F9012301220E21D8
:103D40000320FEF7CDF9012301220F210320FEF706
:103D5000C7F901BD1E4AD2681268012383409A4305
:103D6000C9B211F0010383401A43194BDB681A6092
:103D7000704710B5012301220C210320FEF7B0F992
:103D8000012301220D210320FEF7AAF901230122BC
:103D90000E210320FEF7A4F9012301220F210320A5
:103DA000FEF79EF90C200400E4B2102C0ED2002184
:103DB0002000C0B2FFF7CEFF642000F0B9FA012165
:103DC0002000C0B2FFF7C6FF641CEDE710BD000085
:103DD0008804FF1F70B504000D001600306801282C
:103DE00002D0022805D00AE02000C0B271688847DE
:103DF00005E0B0680470B068401CB060FFE7286858
:103E0000401C286070BD2DE9F04704005FF0000AF7
:103E10005046A1465FF0000A89F800A019F1010997
:103E2000002A1FD0D1F800A05546002D05D15FF023
:103E3000300A89F800A0401C38E0002D36D095FBF0
:103E4000F3FA564603FB165A5746002F02D5FF4396
:103E5000313700E03037350089F8007019F1010979
:103E6000401CEAE7D1F800A0D446BCF1000F05D110
:103E70005FF0300A89F800A0401C17E0BCF1000F89
:103E800014D0BCFBF3FAD64603FB1ECAD046B8F1E9
:103E90000A0F02D218F1300801E018F13708F44691
:103EA00089F8008019F10109401CE7E7BDE8F087B7
:103EB0002DE9F04104000D0016001F00A046A845A2
:103EC00007DA3A0031003020FFF784FF18F10108CB
:103ED000F5E7BDE8F0812DE9F04104000D00160082
:103EE0001F00A046A84507DA3A0031002020FFF75E
:103EF00071FF18F10108F5E7BDE8F0812DE9F24FF7
:103F000092B00400150000200090129883469BF8A0
:103F100000000590002800F0F2810598252813D0B4
:103F200005980A2805D0220000A90598FFF752FF3E
:103F300009E0220000A90D20FFF74CFF220000A994
:103F40000A20FFF747FFD7E10020814600200390B9
:103F50000398002822D11BF1010B9BF800002028B8
:103F60000ED0232812D02B2807D02D2802D030289D
:103F700009D00EE059F00109EAE759F00209E7E734
:103F800059F00409E4E759F00809E1E759F010098C
:103F9000DEE7BBF1010B01200390D9E70020824648
:103FA000002003900398002813D11BF1010B9BF80C
:103FB000000005903038092806D80A20059900FB32
:103FC0000A10B0F1300AEDE7BBF1010B01200390BC
:103FD000E8E71BF1010B9BF800002E2811D100200F
:103FE0000390039800280ED11BF1010B9BF80000F1
:103FF0003038092800D8F4E7BBF1010B0120039009
:10400000EFE7BBF1010B1BF1010B9BF800004C2803
:1040100006D0682802D06C2801D002E003E002E05C
:1040200001E0BBF1010B1BF1010B9BF800000590B7
:10403000582875D0622800F0D580632800F01D81D3
:10404000642813D0692811D06E2800F049816F28A8
:1040500000F0BD80702800F0D080732800F0168139
:10406000752800F0D58078285AD040E1286806905D
:104070002D1D0A23012206A909A8FFF7C4FE070087
:1040800009A8381806000698002803D52D200290AC
:104090007F1C0FE04846800703D52B2002907F1C31
:1040A00008E04846400703D5202002907F1C01E02D
:1040B00000200290002004904846000711D5029885
:1040C000002804D0220000A90298FFF783FE0120F7
:1040D0000490230000AA51463800FFF7E9FE574636
:1040E00012E04846C0070FD4230000AA514638000A
:1040F000FFF7F1FE0298002804D0220000A90298E0
:10410000FFF768FE012004900498002807D1029868
:10411000002804D0220000A90298FFF75BFE98E077
:10412000286801902D1D1023002201A909A8FFF77E
:104130006AFE070009A838180600002004904846C7
:10414000000716D54846C0060BD5220000A930202E
:10415000FFF740FE220000A97820FFF73BFE012078
:104160000490230000AA51463800FFF7A1FE5746ED
:104170001BE04846C00718D44846C00600D5BF1CFF
:10418000230000AA51463800FFF7A5FE4846C006A6
:104190000BD5220000A93020FFF71CFE220000A949
:1041A0007820FFF717FE012004904846C0060DD581
:1041B000049800280AD1220000A93020FFF70AFE47
:1041C000220000A97820FFF705FEBF1C41E0286807
:1041D00001902D1D0823002201A909A8FFF713FE55
:1041E00007001FE0286801902D1D0223002201A96D
:1041F00009A8FFF708FE070014E0286801902D1DAC
:104200001023002201A909A8FFF7FDFD070009E01E
:10421000286801902D1D0A23002201A909A8FFF793
:10422000F2FD070009A8381806004846000707D520
:10423000230000AA51463800FFF73AFE574608E02F
:104240004846C00705D4230000AA51463800FFF7AE
:1042500042FE3078002806D0220000A93078FFF70F
:10426000B9FD761EF5E74846C00705D5230000AA2C
:1042700051463800FFF72FFE3EE0287807902D1DAD
:10428000220000A90798FFF7A5FD35E028688046C1
:104290002D1DB8F1000F22D0404600F05BF807005A
:1042A0004846C00705D4230000AA51463800FFF74E
:1042B00012FE98F80000002808D0220000A998F803
:1042C0000000FFF787FD18F10108F2E74846C00734
:1042D00005D5230000AA51463800FFF7FCFD0BE08E
:1042E000286808902D1D08980099016004E02200BC
:1042F00000A90598FFF76EFD1BF1010B07E600987A
:1043000013B0BDE8F08F0EB47EB50400012000901C
:104310000648019007A805002A00210000A8FFF721
:10432000EDFD060030007EBC5DF810FBAD5D0000C9
:1043300000231900814209D2054B1B681A00002A8C
:1043400002D000BF521EFAE7491CF3E77047000095
:104350004860FF1F01000A000023002A01D100204D
:1043600007E01000421C0078002801D05B1CF8E731
:104370001800704780B500F08DFA00F0A7FA00F041
:1043800005FBDFF8E803FFF7BEFFDFF8E403006892
:10439000DFF8E0134979491CB0FBF1F00090DFF839
:1043A000D0030068DFF8CC130979491CB0FBF1F3A6
:1043B000DFF8BC030068DFF8BC13C978491CB0FB08
:1043C000F1F2DFF8AC030168DFF8AC03FFF79BFF05
:1043D000DFF8A8030078400703D5DFF8A403FFF750
:1043E00092FFDFF898030078800703D5DFF8940385
:1043F000FFF789FFDFF884030078C00703D5DFF8F3
:104400008803FFF780FFDFF884030078000603D5F8
:10441000DFF87C03FFF777FFDFF8700300784006D2
:1044200003D5DFF87003FFF76EFFDFF86003007855
:10443000800603D5DFF86003FFF765FFDFF84C0364
:104440000078400703D5DFF85403FFF75CFFDFF87F
:104450003C030078800703D5DFF84403FFF753FFE0
:10446000DFF828030078C00703D5DFF83803FFF72B
:104470004AFFDFF83403FFF746FFDFF83003DFF8C9
:104480003013884204D0DFF82C03FFF73CFF03E031
:10449000DFF82403FFF737FF00F003F8FCF78AF892
:1044A000FEE780B5DFF814030068000910F007008C
:1044B00000280BD0022813D00DD3042819D014D310
:1044C00006281ED019D307281FD022E0DFF8F002FB
:1044D000FFF719FF20E0DFF8EC02FFF714FF1BE005
:1044E000DFF8E402FFF70FFF16E0B848FFF70BFF15
:1044F00012E0B748FFF707FF0EE0B648FFF703FFEB
:104500000AE0B548FFF7FFFE06E0B448FFF7FBFE00
:1045100002E0B348FFF7F7FEA848006810F00F006C
:10452000022812D0042814D0052816D0062818D046
:1045300007281AD008281CD009281ED00A2820D005
:104540000C2822D00E2824D027E0A648FFF7DBFE57
:1045500026E0A548FFF7D7FE22E0A448FFF7D3FEE8
:104560001EE0A348FFF7CFFE1AE0A248FFF7CBFEFC
:1045700016E0A148FFF7C7FE12E0A048FFF7C3FE10
:104580000EE09F48FFF7BFFE0AE09E48FFF7BBFE24
:1045900006E09D48FFF7B7FE02E09C48FFF7B3FE38
:1045A00086480068000B10F00F00002803D0022896
:1045B00009D004D30BE09648FFF7A5FE0AE0954822
:1045C000FFF7A1FE06E09448FFF79DFE02E0934846
:1045D000FFF799FE00F06AF891480068000E10F0AD
:1045E0000F00072806D0092808D00B280AD00F286A
:1045F0000CD00FE08B48FFF786FE0EE08A48FFF7ED
:1046000082FE0AE08948FFF77EFE06E08748FFF752
:104610007AFE02E08648FFF776FE864800680002D0
:1046200003D58548FFF76FFE1EE07D480068000F48
:10463000002806D0072808D009280AD00F280CD057
:104640000FE07E48FFF75FFE0EE07D48FFF75BFE60
:104650000AE07C48FFF757FE06E07A48FFF753FE72
:1046600002E07948FFF74FFE78480068000B10F031
:104670000F00052806D0072808D008280AD00928E6
:104680000CD00FE07248FFF73EFE0EE07148FFF7D6
:104690003AFE0AE07048FFF736FE06E06F48FFF783
:1046A00032FE02E06E48FFF72EFE01BDF8B56D4800
:1046B000032101706C48002101706C4800210170D9
:1046C0006B48002101706B48012101706A4880210C
:1046D0000170694800780006FBD56848007804003E
:1046E000674800780500674800780600664800784B
:1046F0000700FFB20097F6B23300EDB22A00E4B231
:1047000021006248FFF7FFFD56480321017056481B
:1047100000210170554800210170554804210170A5
:10472000544801210170544880210170524800789A
:104730000006FBD551480078040051480078050078
:10474000504800780600504800780700FFB20097F4
:10475000F6B23300EDB22A00E4B221004C48FFF774
:10476000D2FD4548FF210170F1BD0000345A000020
:104770004460FF1FD805FF1F2C58000000E00740D1
:10478000DC5C0000D45A0000C85D000001E0074076
:10479000EC5C00003C5C0000285B0000405B00001B
:1047A000F05A0000D45D0000545A00000000FF1FC2
:1047B00000000000E05D0000EC5D0000248004408B
:1047C000045E00000C5E0000145E00001C5E000031
:1047D000245E00002C5E0000345E00003C5E0000A1
:1047E000B0590000FC5C00000C5D00001C5D000086
:1047F0002C5D00003C5D00004C5D00005C5D000035
:104800006C5D00007C5D00008C5D0000585900006C
:10481000505C0000645C0000785C0000745800008C
:104820004C800440585B0000705B0000885B000017
:10483000745A0000508004409C5D0000A05B0000A2
:10484000B85B0000D05B0000945A00000070044088
:104850008C5C0000A05C0000B45C0000C85C000040
:104860000C5B000007000240060002400500024009
:10487000040002400F000240000002400B00024012
:104880000A0002400900024008000240D859000016
:10489000B45A000080B500F009F80A4800884FF6C5
:1048A000FE7108400749088001BD000072B6064845
:1048B0004CF22051018004484DF62811018062B667
:1048C00070470000002005400E2005402DE9F84308
:1048D0002448254988420DD000208046B8F5826FD3
:1048E00008D22048204951F8281040F8281018F123
:1048F0000108F3E71B48FEF7E7FD1C4807001C48CA
:1049000006001C480400A01B80464046B0F1010888
:10491000002804D030783870761C7F1CF5E71648E4
:10492000814616480500B5EB090080464046B0F1C7
:104930000108002805D0002089F8000019F10109BC
:10494000F4E70F480F49104A531A98464346B3F10B
:104950000108002B04D00B780370491C401CF5E7BC
:10496000BDE8F1830000FF1F000000001004FF1FDE
:10497000785100006C5300005406FF1F6860FF1F51
:104980000406FF1F68560000B856000080B51148A5
:10499000006850F478500F490860962000F028F81D
:1049A0000D4908600C4800684FF47A7148430B4980
:1049B00008600A4800680A490968C1F30361491C94
:1049C000B0FBF1F0074908604FF496410120FDF774
:1049D0007DFC01BD388004404460FF1F4060FF1F24
:1049E000448004404860FF1FDFF800F00506FF1F09
:1049F00038B50400E4B2002C00F00E81E4B22000CF
:104A000030281ED0322823D0602828D064282DD00A
:104A10006E2832D0782837D07D283CD0822841D0EB
:104A20008C2846D096284BD0A02850D0AA2855D004
:104A3000B4285AD0C8285FD0E12864D0FA2869D0B9
:104A40006FE0A44818210170A248002141706CE079
:104A5000A048182101709F480121417065E09D48E0
:104A6000182101709B48182141705EE09948182177
:104A7000017098481A21417057E09648182101703A
:104A800094481F21417050E09248132101709148D1
:104A90001821417049E08F48132101708D481A2177
:104AA000417042E08B48132101708A481C214170FB
:104AB0003BE088480E21017086481221417034E0A5
:104AC00084480E2101708348152141702DE08148F2
:104AD0000E2101707F481821417026E07D480E218B
:104AE00001707C481B2141701FE07A480E21017043
:104AF00078481E21417018E076480C2101707548F5
:104B00001C21417011E073480B21017071481E2176
:104B100041700AE06F480A2101706E481F21417000
:104B200003E06420FFF764FFD2E06A48002181704F
:104B3000E4B2652C03D267480021C1701FE0E4B2E3
:104B4000C92C03D263480121C17018E02000C0B213
:104B500040F22D1180B2884203D25E480221C1701A
:104B60000DE02000C0B240F2911180B2884203D221
:104B700058480321C17002E056480F21C1705548C2
:104B80005449C9780171E4B21A2C03D2514800216A
:104B9000417141E0E4B2332C03D24E48012141710E
:104BA0003AE0E4B24C2C03D24A480221417133E08E
:104BB000E4B2652C03D24748032141712CE0E4B2F2
:104BC0007E2C03D243480421417125E0E4B2972CA6
:104BD00003D24048052141711EE0E4B2B02C03D25B
:104BE0003C480621417117E0E4B2C92C03D2394890
:104BF0000721417110E0E4B2E22C03D235480821CC
:104C0000417109E0E4B2FB2C03D232480921417121
:104C100002E030480F2141712E484078183080B2B0
:104C2000322148432B490978491C89B290FBF1F0A5
:104C300005002948002101702848006850F0805084
:104C4000264908602648007850F080002449087002
:104C500024489821017024480078C006FBD42248DB
:104C60000078C0F38100C0B20228F8D1194800785A
:104C700010F01F001D4908701D48002101701548E3
:104C80004379144802791348C17812488078FFF7B5
:104C9000ABFE1048407810F01F0050F0400014495F
:104CA0000870114800788006FBD50F480078400650
:104CB000FBD50C48007810F03F000A4908700A48FC
:104CC0000078C0F38100C0B20328F8D12800C0B238
:104CD00032BD00BFD805FF1F0140064034800440AC
:104CE00008C0074000400640064006400440064019
:104CF0000540064070B504000D00DFF8B4020068FE
:104D000030F08050DFF8A8120860DFF8A8020068D1
:104D100030F48040DFF89C1208602000C0B200F040
:104D200091F806002800C0B200F08CF8DFF8840289
:104D3000006850F48040DFF87C1208603000C0B298
:104D400070BD38B50400DFF86802006830F08050AC
:104D5000DFF85C120860DFF85C02006830F4804025
:104D6000DFF8501208602000C0B200F06BF8FF209E
:104D700000F068F80500DFF83C02006850F480405D
:104D8000DFF8301208602800C0B232BDF8B5040068
:104D90000D001600DFF81C02006830F48040DFF8D8
:104DA000141208602000C0B200F04CF80700320076
:104DB0002900002000F010F9DFF8F801006850F435
:104DC0008040DFF8F01108603800C0B2F2BD2DE974
:104DD000F04104000D001600DFF8D401006830F047
:104DE0008050DFF8CC110860DFF8C801006830F4AB
:104DF0008040DFF8C0110860002080465FFA88F824
:104E0000F6B2B04507D25FFA88F8FF2008F805002F
:104E100018F10108F2E72000C0B200F013F8070013
:104E2000F6B232002900002000F03CF9DFF88401DE
:104E3000006850F48040DFF87C1108603800C0B290
:104E4000BDE8F08101B5012200A9002000F02AF997
:104E50009DF8000002BD80B5DFF8640100680028FD
:104E60002BD00720FFF76DFFDFF858110870DFF82F
:104E7000540101782720FFF73DFFFF21E120FFF7D4
:104E800039FFDFF840010078800604D5DFF82C01F7
:104E90000068002808D1DFF8280100210160DFF850
:104EA0001C010021016008E0DFF8140100682030D7
:104EB000DFF80C11086000F001F801BD80B53F4833
:104EC0000068002816D03A48006830F08050384911
:104ED000086020223A480168A020FFF757FF3448B5
:104EE000006850F080503249086034480068401E25
:104EF0003249086001BD80B52F480078012802D1F1
:104F0000FFF7A9FF05E02C480078022801D100F046
:104F100001F801BD10B52648006830F080502449E2
:104F200008600720FFF70DFF04002100C9B2272009
:104F3000FFF7E0FE2448007802280AD1FF21E22092
:104F4000FFF7D8FE1A48006850F0805018490860F2
:104F50002DE0600625D520221C4800781C4911EB65
:104F600040116120FFF733FFFF21E220FFF7C2FE6F
:104F700016480078401C1549087014480078142819
:104F800002D31248002101701048007811490978B5
:104F9000884203D10C480221017002E00A48012135
:104FA00001700348006850F080500149086010BD4E
:104FB00000F10F4000F00F404E60FF1F5806FF1F2A
:104FC0005406FF1F4F60FF1F5260FF1F5160FF1FFD
:104FD0005C06FF1F5060FF1F70B40023C0B2644D19
:104FE00055F82050ED6AC0B2614D55F82050614E21
:104FF000EE62C0B25E4D55F820502D6855F4406504
:10500000C0B25B4E56F820603560C0B2584D55F8BE
:105010002050ED6AAD03E6D400252B00551EAB42AF
:1050200022D2C0B2524D55F820505E5C56F0004678
:105030006E63C0B24E4D55F82050ED6AAD03F8D501
:10504000C0B24B4D55F82050AD6B2C00C0B2484D4E
:1050500055F82050ED6A55F40035C0B2444E56F86C
:105060002060F5625B1CD9E7C0B2414D55F8205075
:105070005E5C56F000666E63C0B23D4D55F8205040
:10508000ED6AED00F8D5C0B2394D55F82050ED6A03
:10509000AD03F8D5C0B2364D55F82050AD6B2C009D
:1050A00070BC704730B40023C0B2314C54F820407B
:1050B000E46AC0B22E4C54F820402E4DE562C0B2D6
:1050C0002B4C54F82040246854F44064C0B2284D5E
:1050D00055F820502C60C0B2254C54F82040E46AAA
:1050E000A403E6D400242300541EA34222D2C0B25B
:1050F0001F4C54F820405D5C55F000456563C0B21C
:105100001B4C54F82040E46AA403F8D5C0B2184CF4
:1051100054F82040A46B5C54C0B2154C54F82040A5
:10512000E46A54F40034C0B2114D55F82050EC62DA
:105130005B1CD9E7C0B20E4C54F820405D5C55F0C2
:1051400000656563C0B20A4C54F82040E46AA403C9
:10515000F8D5C0B2064C54F82040A46B5C54C0B2E1
:10516000034C54F82040E46AE400F8D530BC7047A2
:10517000E005FF1F00000A1A008003400090034072
:1051800000800B40010000000D81110009030CD0CC
:105190001240173F185019031A783200A00A63E032
:1051A000ACFF650C6600670029282C3C2A007E0CA9
:1051B0007F16802A814E8261836F847B8586868EEE
:1051C000879788A489AF8AC58BD78CE88D204A0041
:1051D000491347084B144C17460522992303A6048C
:1051E0009B009CFFAB069E119F0200003100000057
:1051F00000F00F4040F00F4080F00F40C0F00F4033
:1052000000F10F400090044000A0044000B00440B2
:1052100000C0044000D0044068696A6B86870000C3
:1052200000003041000020402D2D000000002040F3
:105230000000803F0000003FB80B00006400000049
:10524000FC080000D00700004A09FF1F23712371EA
:10525000237124712470247024702570256F256FAC
:10526000256F266E266E266E276E276D276D276D9D
:10527000286D286C286C286C296B296B296B296B8D
:105280002A6A2A6A2A6A2B692B692B692B692C687E
:105290002C682C682D672D672D672D672E662E666E
:1052A0002E662F652F652F6530653064306431645C
:1052B000316331633163326232623262336133614E
:1052C00033613461346034603460355F355F355F3D
:1052D000365E365E365E375D375D375D385C385C2E
:1052E000395C395B395B3A5B3A5A3A5A3B5A3B591B
:1052F0003B593C593C583C583D583D573D573E570B
:105300003E563E563F553F553F553F553F553F55FD
:105310003F553F553F553F553F553F553F553F55ED
:105320003F553F553F553F553F553F553F553F55DD
:105330003F553F553F553F553F553F550A000000EB
:105340000B1F00000009000000C0024000D0024016
:1053500000C00A4000A0064000B0064000C0064061
:1053600000D0064000A00E4000B00E4010B51B203B
:1053700004005D4800680121A14008420ED05A484F
:1053800000680121A1400843574908604520FEF705
:10539000E8F8FFF7B0FD4520FEF799F810BD10B50D
:1053A000002403200400514800680121A140084264
:1053B0002DD04F480078042810D14D4803210170AA
:1053C0005820FEF7CEF84B48006850F001004949DC
:1053D0000860494849490968016013E04448007879
:1053E000032809D13FA0FEF78EFF4548FEF78BFF4B
:1053F0003CA0FEF788FFFEE75820FEF7B2F83C48D5
:105400000221017039485FF0FF3101600CE037483C
:105410005FF0FF31016033A0FEF775FF3948FEF7FA
:1054200072FF30A0FEF76FFF10BD3748006850F0E4
:1054300080003549086035480068401C33490860E1
:10544000704780B53248006850F00100304908606C
:1054500030483149096801802B4800684008400005
:10546000294908602848006850F001002649086072
:105470002548006830F04100234908605520FEF7B8
:1054800070F826480068800880002449086044209D
:10549000FEF767F81D480068642148431D490988E4
:1054A00010FA81F01E4908601D480168C9B2012048
:1054B000FCF7E3FF15480021016001BD80B500F055
:1054C00064F81848006850F001001649086001BDF2
:1054D0000748012101701448006850F0010012498A
:1054E000086070470D0A0000A0D00440A0A004404E
:1054F0001C04FF1F0C80004010900040DC08FF1FC0
:10550000285C0000BC5D000000000440E008FF1FB4
:105510000C7103404C60FF1F0C00044008710340F5
:105520003C60FF1F1C7103402480004001B44948C7
:105530000078022827D04848007848499DF8002084
:1055400001F8102044480078444911EB40009DF8D0
:105550000110417040480078401C3F4908703E48A7
:105560000078142802D33C48002101703A480078A2
:105570003B490978884203D136480221017002E094
:1055800034480121017001B0704770B582B000202D
:105590000600F6B2062E58D2F6B22C48305CC0B2E5
:1055A00040090400F6B22948305C10F01F000500E5
:1055B000E4B2274850F824000069E840C00731D41D
:1055C000F6B22848305C401CF6B226497054F6B258
:1055D0002448305C022836D3F6B22248305C0228D8
:1055E00008D18DF8006000208DF801000098FFF7C9
:1055F0009DFF28E0F6B21B48305C332823D3F6B277
:105600001848305C332808D18DF8006002208DF8EE
:1056100001000098FFF78AFF15E0F6B21148022159
:10562000315410E0F6B20F48305C022807D38DF8F1
:10563000006001208DF801000098FFF777FFF6B2B7
:10564000084800213154761CA3E773BDB004FF1F46
:105650008804FF1F5560FF1F5460FF1FE408FF1FF1
:105660005360FF1F0C09FF1FF0B4114E3668340061
:105670000F4E366856F47F060D4F3E600E0616F04C
:10568000706656EA0076170517F470073E431F044C
:1056900017F470273E43074F3E6000263500EDB2F9
:1056A0009D4201D26D1CFAE7014E3460F0BC704798
:1056B00000F0014044800440B6CFD1D4B7A2C9FA6B
:1056C000D4DA2573CEC4BCFEB5C4B5DA2564D0D017
:1056D000A3A10AB6CFD1D4CCF5BCFEB2BBB3C9C12D
:1056E000A2A3ACC7EBBCECB2E2B4EDCEF3D4ADD226
:1056F000F2A1A309A1AAA1AA20627920D2B0BBF08D
:105700000A0A0000433A5C55736572735C41646D2C
:10571000696E6973747261746F725C4465736B74E3
:105720006F705CA3A8CDEABDE1A3A9D6C7C4DCB362
:10573000B5B3CCD0F25C7372635C647269766572E7
:10574000735C6770696F5C6770696F2E630000003F
:10575000433A5C55736572735C41646D696E69733D
:10576000747261746F725C4465736B746F705CA368
:10577000A8CDEABDE1A3A9D6C7C4DCB3B5B3CCD0EC
:10578000F25C7372635C647269766572735C6C70F0
:10579000746D725C6C70746D722E6300433A5C556C
:1057A000736572735C41646D696E69737472617460
:1057B0006F725C4465736B746F705CA3A8CDEABDB7
:1057C000E1A3A9D6C7C4DCB3B5B3CCD0F25C737285
:1057D000635C647269766572735C46544D5C4654D2
:1057E0004D2E6300433A5C55736572735C41646D82
:1057F000696E6973747261746F725C4465736B7403
:105800006F705CA3A8CDEABDE1A3A9D6C7C4DCB381
:10581000B5B3CCD0F25C7372635C64726976657206
:10582000735C646D615C646D612E6300C4DABACB35
:10583000C6B5C2CAA3BA25644D487A09D7DCCFDF02
:10584000C6B5C2CA20A3BA25644D487A0A666C65FB
:1058500078C6B5C2CAA3BA25644D487A2009666CD9
:10586000617368C6B5C2CAA3BA25644D487A0A0AEC
:10587000000000000A546869732076657273696FCE
:105880006E206F6620736F66747761726520646F37
:1058900065736E2774207265636F676E697A652021
:1058A000746865207265766973696F6E20636F64D2
:1058B000652E00000A4552522120496E76616C69BE
:1058C00064204952512076616C7565207061737354
:1058D000656420746F2064697361626C652069720D
:1058E000712066756E6374696F6E210A0000000096
:1058F0000A4552522120496E76616C6964204952F2
:10590000512076616C7565207061737365642074D5
:105910006F20656E61626C65206972712066756EBC
:105920006374696F6E210A000A2A2A2A2A6465664E
:1059300061756C745F69737220656E7465726564FD
:10594000206F6E20766563746F722025642A2A2A80
:105950002A2A0D0A0A0000000A556E7265636F67F5
:105960006E697A6564204B696E6574697320706135
:10597000636B61676520636F64652E2020202020A3
:105980002000000010B5084979441C31074C7C44C4
:105990001A34A14206D0081D0A68511888470146EA
:1059A000A142F8D110BD00BF7C00000088000000BB
:1059B0000A556E7265636F676E697A6564204B691C
:1059C0006E657469732066616D696C7920646576B3
:1059D0006963652E0A000000466C6173682070617F
:1059E00072616D657465722076657273696F6E2081
:1059F00025642E25642E25642E25640A00000000EF
:105A000010B506480478FEF78BF9FEF7B2F9E4B258
:105A100021000348FEF777FC10BD00BF04ED00E055
:105A2000285900000FD1FFFF145A00005406FF1F31
:105A3000000000000A0A0909D2B0BBF06B696E656C
:105A4000746973BACBD0C4B0E5B2E2CAD4B3CCD0D7
:105A5000F20A00000AD2B0BBF04B696E657469733C
:105A6000BFAAB7A2B0E5C6F4B6AFB7BDCABDA3BA68
:105A700000000000455252212120556E6465666980
:105A80006E656420502D666C6173682073697A6559
:105A90000A000000455252212120556E6465666956
:105AA0006E656420466C65784E564D2073697A6544
:105AB0000A000000466C6173682076657273696F36
:105AC0006E2049442025642E25642E25642E2564ED
:105AD0000A000000436F7265204C6F636B75702085
:105AE0004576656E742052657365740A0000000087
:105AF0004C6F772D766F6C746167652044657465B3
:105B000063742052657365740A0000004552522187
:105B10002120556E646566696E65642052414D2092
:105B200073697A650A0A00005761746368646F6775
:105B300028434F50292052657365740A0000000005
:105B40004C6F7373206F6620436C6F636B205265DC
:105B50007365740A00000000313238206B4279749A
:105B60006573206F6620502D666C617368090000B4
:105B7000323536206B4279746573206F6620502D64
:105B8000666C617368090000353132206B427974AC
:105B90006573206F6620502D666C61736809000084
:105BA00030206B4279746573206F6620466C65788F
:105BB0004E564D0A00000000313238206B42797495
:105BC0006573206F6620466C65784E564D0A00005E
:105BD000323536206B4279746573206F6620466CCF
:105BE00065784E564D0A000000F009F8002801D0F3
:105BF000FFF7C8FE0020FAF7DDFC00F002F80120F4
:105C0000704700F001B800000746384600F002F87F
:105C1000FBE7000080B5C046C046024A11001820CC
:105C2000ABBEFBE726000200BEAFB8E63A444D41EA
:105C3000B2C9BCAFD2ECB3A30000000045787465D4
:105C4000726E616C2050696E2052657365740A0033
:105C500053696C69636F6E2072657620312E302037
:105C600020200A0053696C69636F6E20726576208C
:105C7000312E3120200A000053696C69636F6E2059
:105C800072657620312E3220200A00003332206BDC
:105C90004279746573206F662052414D0A0A0000F4
:105CA0003634206B4279746573206F662052414D03
:105CB0000A0A00003936206B4279746573206F66DA
:105CC0002052414D0A0A0000313238206B4279746B
:105CD0006573206F662052414D0A0A00536F667447
:105CE000776172652052657365740A00506F77653D
